:020000040800F2
:10000000202B00204D020008710200087302000836
:100010007502000877020008790200087B020008D8
:100020007B0200087B0200087B0200087B020008BC
:100030007B0200087B020008010400085528000824
:100040006B0900080D080008850800082B08000847
:100050005907000817080008130700081D070008C3
:10006000310700083B070008450700085306000851
:100070005D06000867060008710600087B06000898
:10008000850600088F060008E50500080D06000833
:10009000EF050008F9050008030600084F070008EF
:1000A0008F080008AD080008A30800089908000898
:1000B000B7080008C1080008CB0800088B07000833
:1000C000810700089F0700089507000849080008F5
:1000D000530800082F0900083909000843090008DF
:1000E0002707000821080008DB070008F3080008BC
:1000F0001109000807090008FD0800089906000812
:100100006D0700083F080008D50800085D080008D2
:100110004D09000857090008DF080008E908000831
:10012000AD060008B7060008C1060008CB060008A7
:10013000D5060008FF060008090700083506000874
:1001400017060008210600082B060008D107000842
:10015000DF060008E9060008F30600086109000848
:10016000B3070008A9070008F9070008EF0700080F
:1001700003080008E5070008490600083F060008D4
:1001800077070008630700081B0900082509000815
:1001900067080008710800087B0800083508000897
:1001A000BD070008C7070008A306000800F002F812
:1001B00000F03CF80AA090E8000C82448344AAF1C5
:1001C0000107DA4501D100F031F8AFF2090EBAE8C3
:1001D0000F0013F0010F18BFFB1A43F0010318477B
:1001E0007C4B00009C4B0000103A24BF78C878C1BB
:1001F000FAD8520724BF30C830C144BF04680C602D
:10020000704700000023002400250026103A28BF74
:1002100078C1FBD8520728BF30C148BF0B60704778
:100220001FB504F095FC1FBD10B510BD00F059F8C6
:100230001146FFF7F5FF04F0A3FB00F077F803B4D5
:10024000FFF7F2FF03BC00F07BF80000DFF83C0092
:10025000016841F470010160BFF34F8FDFF8300097
:10026000016821F040410160BFF36F8F09480047EA
:10027000FEE7FEE7FEE7FEE7FEE7FEE7FEE700003B
:1002800005480649064A074B7047000088ED00E024
:1002900034EF00E0AD01000820250020202B0020D5
:1002A000202700202027002072B6704762B67047D2
:1002B000EFF3108072B6704780F31088704730BF3C
:1002C000704720BF7047B0FA80F0704790FAA0F0F6
:1002D000B0FA80F0704790FAA0F07047704770470E
:1002E0007047754600F028F8AE460500694653464B
:1002F00020F00700854618B020B5FFF7C1FFBDE824
:1003000020404FF000064FF000074FF000084FF07C
:10031000000B21F00701AC46ACE8C009ACE8C0090D
:10032000ACE8C009ACE8C0098D4670470446AFF39D
:1003300000802046FFF783FF00487047BC24002060
:1003400001491820ABBEFEE72600020070470000FE
:10035000EFF3098141B1F1EE101A40F8041D20EDD0
:10036000200A3B490A6810607047B0EC200A02C8B6
:10037000E1EE101A37490A681060704772B64EF6FF
:100380002250CEF2000040F2FF01C0F200010170E5
:1003900040F21C00C2F20000016881F3088840F2BC
:1003A0006200C2F2000040F26301C2F200010A786A
:1003B000027040F2EC05C2F2000540F2F001C2F218
:1003C00000010A682A60106880F30988EFF314803E
:1003D00040F0020080F31488BFF36F8FBDE8F00F88
:1003E0000FBCBDE8005006BC62B608471A484FF083
:1003F00080510160704718484FF08051016070478C
:1004000072B6EFF3098020E9F00F40F2EC05C2F27A
:1004100000052E683060744602F036F940F2620042
:10042000C2F2000040F26301C2F200010A780270D9
:1004300040F2F001C2F200010A682A6044F0F40EB2
:100440001068B0E8F00F80F3098862B670470000CA
:10045000EC000020F000002004ED00E01FB568462D
:1004600003F028FF019804B010BD000070B500F043
:1004700081FA4048006840F001003E4908600020D1
:100480003C49083108603B4800683B49084039490D
:1004900008603A48091D0860081F006820F48020A1
:1004A000091F08600846006820F47F0008600846BD
:1004B000006840F48030086000BF6D1CB5F5A06F87
:1004C0000AD22C48006800F4003010B900BF0120A7
:1004D00000E000200028F0D1B5F5A06F00D170BD7C
:1004E000002424480830046824F0F00400BF0460AD
:1004F000046824F4604444F400440460046824F470
:10050000E05444F4A05404601D481A49091D0860D1
:10051000081F006840F08070091F086000BF154880
:10052000006800F0007010B900BF012000E000205A
:100530000028F4D11348006840F005001149086014
:100540000846006840F4E06008600A480830006827
:1005500040F0020007490831086000BF0548083034
:10056000006800F00C000828F8D100F02BFA00BF5A
:10057000B5E7000000380240FFFFF6FE103000240F
:1005800008544007003C024010B5FFF78DFE10BD37
:1005900010B504465B2C04D204F11001C8B200F07F
:1005A00045FB10BD70B50446002600BF00BFFFF735
:1005B0007FFE064600BF00BF00F0B4FF00BF00BFD3
:1005C0003046FFF779FE00BF00BF5B2C04D2044821
:1005D00050F8245005B1A84700F0BAFF70BD0000E4
:1005E000F800002010B51220FFF7DCFF10BD10B599
:1005F0001420FFF7D7FF10BD10B51520FFF7D2FF6D
:1006000010BD10B51620FFF7CDFF10BD10B513209B
:10061000FFF7C8FF10BD10B54020FFF7C3FF10BDA6
:1006200010B54120FFF7BEFF10BD10B54220FFF707
:10063000B9FF10BD10B53F20FFF7B4FF10BD10B5D6
:100640004F20FFF7AFFF10BD10B54E20FFF7AAFFF8
:1006500010BD10B50B20FFF7A5FF10BD10B50C2085
:10066000FFF7A0FF10BD10B50D20FFF79BFF10BDD9
:1006700010B50E20FFF796FF10BD10B50F20FFF745
:1006800091FF10BD10B51020FFF78CFF10BD10B505
:100690001120FFF787FF10BD10B52F20FFF782FF55
:1006A00010BD10B55A20FFF77DFF10BD10B53820E2
:1006B000FFF778FF10BD10B53920FFF773FF10BDAD
:1006C00010B53A20FFF76EFF10BD10B53B20FFF7C5
:1006D00069FF10BD10B53C20FFF764FF10BD10B5D9
:1006E0004420FFF75FFF10BD10B54520FFF75AFF0C
:1006F00010BD10B54620FFF755FF10BD704710B56F
:100700003D20FFF74FFF10BD10B53E20FFF74AFF19
:1007100010BD10B50620FFF745FF10BD10B507202E
:10072000FFF740FF10BD10B52820FFF73BFF10BDBD
:1007300010B50820FFF736FF10BD10B50920FFF7F0
:1007400031FF10BD10B50A20FFF72CFF10BD10B50A
:100750001720FFF727FF10BD10B50420FFF722FF79
:1007600010BD10B55120FFF71DFF10BD10B5302092
:10077000FFF718FF10BD10B55020FFF713FF10BD95
:1007800010B52020FFF70EFF10BD10B51F20FFF79A
:1007900009FF10BD10B52220FFF704FF10BD10B5F2
:1007A0002120FFF7FFFE10BD10B54920FFF7FAFE2C
:1007B00010BD10B54820FFF7F5FE10BD10B558204C
:1007C000FFF7F0FE10BD10B55920FFF7EBFE10BD8E
:1007D00010B54320FFF7E6FE10BD10B52A20FFF745
:1007E000E1FE10BD10B54D20FFF7DCFE10BD10B5C9
:1007F0004B20FFF7D7FE10BD10B54A20FFF7D2FE01
:1008000010BD10B54C20FFF7CDFE10BD10B5012076
:10081000FFF7C8FE10BD10B50520FFF7C3FE10BDE1
:1008200010B52920FFF7BEFE10BD10B50320FFF75D
:10083000B9FE10BD10B55720FFF7B4FE10BD10B5BE
:100840003120FFF7AFFE10BD10B52320FFF7AAFE41
:1008500010BD10B52420FFF7A5FE10BD10B5332044
:10086000FFF7A0FE10BD10B55420FFF79BFE10BD92
:1008700010B55520FFF796FE10BD10B55620FFF7B6
:1008800091FE10BD10B50220FFF78CFE10BD10B513
:100890001820FFF787FE10BD10B51B20FFF782FE62
:1008A00010BD10B51A20FFF77DFE10BD10B5192040
:1008B000FFF778FE10BD10B51C20FFF773FE10BDCA
:1008C00010B51D20FFF76EFE10BD10B51E20FFF7FE
:1008D00069FE10BD10B53220FFF764FE10BD10B5E3
:1008E0003620FFF75FFE10BD10B53720FFF75AFE28
:1008F00010BD10B52B20FFF755FE10BD10B52E20F2
:10090000FFF750FE10BD10B52D20FFF74BFE10BDB8
:1009100010B52C20FFF746FE10BD10B55220FFF792
:1009200041FE10BD10B55320FFF73CFE10BD10B5C1
:100930002520FFF737FE10BD10B52620FFF732FE49
:1009400010BD10B52720FFF72DFE10BD10B53420C7
:10095000FFF728FE10BD10B53520FFF723FE10BDB0
:1009600010B54720FFF71EFE10BD10B50020FFF7A1
:1009700019FE10BD10B5002404E00449204600F023
:1009800007F8641C5B2CF8D310BD0000FD060008BE
:1009900070B504460D4600265B2C10D200BF00BF88
:1009A000FFF786FC064600BF00BF054840F824500C
:1009B00000BF00BF3046FFF77FFC00BF00BF70BD27
:1009C000F80000201CB5002000F044F81020009032
:1009D00001208DF8040000208DF8060001208DF81C
:1009E000070002208DF805006946174800F05CFA00
:1009F000062000F02FF80820009001208DF8040058
:100A000000208DF8060001208DF8070002208DF8E7
:100A1000050069460D4800F047FA042000F01AF876
:100A20000C20009001208DF8040000208DF80600B5
:100A300001208DF8070002208DF805006946044862
:100A400000F032FA1CBD0000000002400018024015
:100A500000100240672873D034DC1A2865D00FDC00
:100A60006DD2DFE800F04F5051525354555657584D
:100A700059CB5ACBCBCBCBCB5BCB5C5D5E5FCB603A
:100A8000272862D00BDCA0F11B010C29E8D2DFE89B
:100A900001F04D4B4E4FB558B5B5B5595A5B63286B
:100AA0006ED008DC40285CD0602866D0612865D014
:100AB000622844D163E0642863D0652862D0662848
:100AC000F7D160E0A0F168013329C9D2DFE801F075
:100AD0005D96965E96965F609661626364656667F2
:100AE000966869966A6B6C6D797A96967B7C969619
:100AF0007D7E7F808182839684858696878889968D
:100B000096968A0000BF00BF00BF00BF00BF00BFB5
:100B100000BF00BF00BF00BF00BF00BF00BF00BFDD
:100B200000BF00BF00BF00BF00BF00BF00BF00BFCD
:100B300033490968012282401143314A11605DE066
:100B400022E000BF00BF00BF00BF2D49091D09689A
:100B5000A0F12002012393401943294A121D11607C
:100B60004CE0274908310968A0F140020123934075
:100B70001943234A0832116040E000BF00BF00BFA4
:100B800000BF00BF00BF00BF00BF00BF00BF00BF6D
:100B900000BF00BF00BF00BF00BF00BF00BF00BF5D
:100BA00000BF00BF00BF00BF00BF1549103109687A
:100BB000A0F16002012393401943114A10321160E1
:100BC0001CE000BF00BF00BF00BF00BF00BF00BFF0
:100BD00000BF00BF00BF00BF00BF00BF00BF00BF1D
:100BE00000BF00BF064914310968A0F1800201234B
:100BF00093401943024A1432116000BF00BF70478E
:100C00003038024070B5FFF729FC044603480068FD
:100C1000B4FBF0F5284601F041FE70BDBC4B000866
:100C200010B500F0C7F800F0BFF810BD2DE9F04195
:100C300004464FF00008102C6BD2DFE804F0080ED9
:100C40000F1014293E090A0B0C11120D135300BF8B
:100C500000BF00BF00BF00BF89E000BF00BF00BFF2
:100C600000BF00BF83E000BF00BFFFF721FB80464D
:100C700000BF00BF3F48006840F480303D49086035
:100C800000BF00BF4046FFF717FB00BF00BF6EE08C
:100C900000BF00BFFFF70CFB804600BF00BF354818
:100CA000006840F400303349086000BF00BF404690
:100CB000FFF702FB00BF00BF59E000BF00BFFFF716
:100CC000F7FA804600BF00BF2A48006840F4802041
:100CD0002849086000BF00BF4046FFF7EDFA00BF9B
:100CE00000BF44E000BF00BFFFF7E2FA804600BF4C
:100CF00000BF4FF0E020006940F001004FF0E0211C
:100D0000086100BF00BF4046FFF7D6FA00BF00BF32
:100D10002DE04FF0E0204068401C102101EB401016
:100D2000C7B2BC4222DAA4F11000C11700EBD161B6
:100D3000C1F34715C11700EBD1614911A0EB411177
:100D4000CEB200BF00BFFFF7B3FA804600BF00BFBE
:100D50000120B040A90001F1E021C1F8000100BF6D
:100D600000BF4046FFF7A8FA00BF00BF00BF00BFAA
:100D7000BDE8F08124ED00E010B5002400BF00BF05
:100D8000FFF796FA044600BF00BF1021054800F0A7
:100D90004FFA00BF00BF2046FFF78EFA00BF00BF2A
:100DA00010BD00006402002010B5FFF7E5FF10BD84
:100DB00000BFFEE710B500200249086000F00AF805
:100DC00010BD0000100000200149086070470000BD
:100DD0001000002010B5FFF741FB044608480068EA
:100DE00040F08070064908600020064948600846C7
:100DF000006840F0010008602046FFF7E5FF10BDE5
:100E0000FCED00E0001000E0014948687047000078
:100E1000001000E0002123498279002A3AD00A46D6
:100E2000126803689A430B461A600A1D1268036829
:100E30009A430B1D1A60027911440A6803681A4329
:100E40000A60184A0832126803689A43154B08333F
:100E50001A601A1D126803689A43124B0C331A6009
:100E60004279102A0ED11A1F126803681A430D4BDB
:100E700008331A601A1D126803681A43094B0C33B1
:100E80001A600DE00749427911440A6803681A4361
:100E90000A6005E0027911440A6803689A430A600F
:100EA00070470000003C0140F0B50A4600210023D5
:100EB000002400BF3DE0012505FA01F3156805EAAD
:100EC00003049C4234D105684F000326BE40B5435D
:100ED000056015794E00B540066835430560157903
:100EE000012D02D01579022D16D185684F000326F9
:100EF000BE40B543856055794E00B54086683543A0
:100F00008560456801268E40B54345604568967901
:100F10008E40B6B235434560C5684F000326BE40DB
:100F2000B543C560D5794E00B540C6683543C56048
:100F3000491C1029BFD3F0BDF0B5002300244D0794
:100F4000ED0E02FA05F3CE1000F1200555F82650FB
:100F50004E07F70E0F26BE40B543CF1000F1200616
:100F600046F82750CE1000F1200555F8265045EAE6
:100F70000304CE1000F1200545F82640F0BD0246DE
:100F8000002013690B400BB1012000E000207047E6
:100F900042694A40426170470AB1018300E04183DF
:100FA000704770B504460D4629462046FFF7E7FF17
:100FB00070BD2DE9FF4706460D461446304603F046
:100FC00097FB81460121484603F044F9204603F08F
:100FD000A5FC8DF80C00052C01D1012000E00020BB
:100FE0008DF80E000295204603F08AFC8DF80F0064
:100FF00002208DF80D0002A93046FFF755FF062CA0
:1010000003D0072C01D0082C24D10121880303F040
:1010100041F9284603F0BCFBC7B2304603F00CFC94
:1010200000F0FF083946404603F0B8F94FF4A060DD
:1010300000F08EF9009501208DF8060000208DF853
:101040000400204603F038FB8DF805006846FFF7E2
:10105000E1FE00BFBDE8FF8770B505460E461446A9
:101060000CB1012000E00020024631462846FFF77F
:1010700093FF70BD2DE9F04786B0064689461446B9
:101080001D46DDF838A05748864226D10121084682
:1010900003F0E0F802208DF8140000208DF816000F
:1010A0004FF4C060049000208DF8170002208DF8E6
:1010B000150004A94C48FFF7F7FE072209214A480A
:1010C000FFF73AFF07220A214748FFF735FF0121C2
:1010D000102003F0DFF8252751E04448864225D14F
:1010E0000121084603F0B6F802208DF81400002014
:1010F0008DF816000C20049000208DF817000220B7
:101100008DF8150004A93848FFF7CEFE072202210A
:101110003548FFF711FF072203213348FFF70CFF83
:101120000121480403F0A6F8262728E0304886422B
:1011300025D10121022003F08DF802208DF8140042
:1011400000208DF816004FF44060049000208DF8C8
:10115000170002208DF8150004A92648FFF7A4FE09
:1011600007220A212348FFF7E7FE07220B21214827
:10117000FFF7E2FE0121880403F07CF82727082D01
:1011800000D114B1072D03D114B14FF0000807E0CE
:10119000082D00D114B9092D02D10CB94FF4805893
:1011A000CDF80090ADF804801FFA8AF0ADF8060083
:1011B000A0B2ADF808000C20ADF80A000020ADF890
:1011C0000C006946304603F08BF9012240F22551AC
:1011D000304603F060F90121304603F026F906B0ED
:1011E000BDE8F087001001400000024000440040CC
:1011F000004800400004024010B5012000F002F851
:1012000010BD000070B50446002500BF00BFFFF709
:101210004FF8054600BF00BF0448046000BF00BF90
:101220002846FFF749F800BF00BF70BD140000203A
:1012300030B505460C4622460021284600F05EF8EF
:1012400030BD00003EB500200C4908600C4C02A8DF
:1012500001214FF440632246CDE9001009490AA05C
:1012600000F016F8BDF8080042F21071884203D071
:1012700000BFFFF79DFD00BF3EBD0000180000202D
:1012800074020020740E00204865617000000000A8
:101290002DE9F84F05460E4617461C46DDE90A893A
:1012A0004FF0000A00BF00BFFFF702F8824600BF00
:1012B00000BF43463A4631462846009400F00EF8F7
:1012C00000BF00BF5046FEF7F7FF00BF00BF42F26D
:1012D0001070A9F80000BDE8F88F000030B5039C3D
:1012E0000A60651E15444D608A60034D2D68CD600F
:1012F0000B61014D296030BD180000202DE9F0413F
:1013000005460B4694460027002402E03F021F4397
:10131000641C042CFAD3604605F00306294646B146
:10132000344603E001F8013B401E641C08B1042C64
:10133000F8D30A4601E080C2001F0428FBD2114600
:1013400002E001F8013B401E0028FAD1BDE8F0811F
:1013500002490143024A1160704700000000FA058B
:101360000CED00E07047000010B50348006810B1B4
:1013700001480068804710BD3400002070B5044665
:1013800000F0BCF8002045490870454908704549FF
:101390000870454908604549086045490870454955
:1013A0000870454908704549086045490860454945
:1013B000086045490870454800680A21B0FBF1F013
:1013C000434908604348006858B14348056845B13F
:1013D0004048066803E0761E002028602D1D002E80
:1013E000F9D100203D4908603D4908603D49086049
:1013F0003D4908603D4908603D4908603D49086035
:101400003D49087001F03AFE01F074FE204601F0FB
:1014100031FB208800B170BD204601F091FB20888F
:1014200000B1F8E7204601F097FB208800B1F2E711
:10143000204601F069FC208800B1ECE7204601F06D
:101440004DFE208800B1E6E7204601F09DFF208890
:1014500000B1E0E7204602F043FA208800B1DAE765
:10146000204601F035FB208800B1D4E7204602F089
:101470006FFD208800B1CEE7204602F005F92088F4
:1014800000B1C8E7204602F0C7FD208800B1C2E7DE
:1014900001F01CFAFFF766FF00BFBCE74800002020
:1014A000490000207C000020EC000020F00000201B
:1014B0006200002063000020640000207000002013
:1014C000740000207800002084000020BC4B00083D
:1014D000800000208C4B0008884B0008280000206A
:1014E0002C000020300000203400002038000020B4
:1014F0003C00002040000020B200002006480068A8
:101500000649096800EB8100054908600846006843
:1015100020F0070008607047884B00088C4B0008DB
:101520001C00002008480078012800D070470748B8
:101530000078FA2800DBF9E704480078401C0349EA
:10154000087000BFF2E700004900002048000020BA
:1015500010B500242D480078012800D010BD00BF30
:10156000FEF7A6FE044600BF2948007828B900BF50
:101570002046FEF7A1FE00BFF0E725480078401E98
:101580002349087008460078002805DD00BF204682
:10159000FEF792FE00BFE1E71E480078002805DD57
:1015A00000BF2046FEF788FE00BFD7E701F052FDDE
:1015B000194908700846007800EB4000174951F8B7
:1015C00020001749086008460068164909688842E3
:1015D00005D100BF2046FEF76FFE00BFBEE71048F2
:1015E0000068D0F89400401C0D490968C1F89400C7
:1015F0000D480068401C0C490860FEF7FCFE00BF67
:101600002046FEF759FE00BF00BFA7E749000020B3
:10161000480000207C00002063000020DC1C00202B
:10162000F0000020EC000020A80000202DE9F0418F
:1016300004460E461546002724B945F6C3502880B7
:10164000BDE8F08100BF00BFFEF732FE074600BFD5
:1016500000BF10482060666000202062606284F84D
:101660002800E06204F1080001F0FFFB204601F0D1
:10167000DBFA09480088401C0749088000BF00BF0A
:101680003846FEF719FE00BF00BF0020288000BFCB
:10169000D6E700004D555458600000202DE9F04772
:1016A00088B00546894617461C46109E4FF0000A32
:1016B0002DB945F6C350308008B0BDE8F0871FB1A2
:1016C000B7F5004F02D100E000BF03E045F625600A
:1016D0003080F1E700BF62492868884203D045F6B0
:1016E000C4503080E8E70CB10020206000BF00BF8C
:1016F000FEF7DEFD824600BF00BF95F82800B8B9AE
:10170000584800686862012085F828000CB1E86A32
:10171000206029465348006801F09EFA00BF00BFD0
:101720005046FEF7C9FD00BF00BF00203080C3E770
:101730004C49686A0968884212D195F82800401C13
:1017400085F828000CB1E86A206000BF00BF504651
:10175000FEF7B2FD00BF00BF45F282703080ABE7FC
:1017600007F4004050B100BF00BF5046FEF7A4FD93
:1017700000BF00BF46F2B01030809DE73A480078C5
:1017800000280ADD00BF00BF5046FEF795FD00BFF0
:1017900000BF46F6635030808EE7D5F8248098F875
:1017A00037003049096891F83710884206DD2D4826
:1017B000006890F83710404601F0E2FF4B460422E3
:1017C0002946684601F0ACFA00BF00BF5046FEF75C
:1017D00073FD00BF00BF00F00FF900BF00BFFEF7B0
:1017E00067FD824600BF00BF1E48006890F83500C4
:1017F00030B101280CD002281AD0032821D110E0E2
:101800001CB118480068806C2060002030801CE00B
:101810001CB114480068806C206046F2A91030802A
:1018200013E00CB10020206047F2D92030800CE09A
:101830001CB10C480068806C206045F6C2503080B6
:1018400003E046F62E60308000BF00BF00BF00BF3F
:101850005046FEF731FD00BF00BF00BF2CE700007F
:101860004D555458EC0000207C0000202DE9F84F25
:101870000446894615464FF0000B24B945F6C3507F
:101880002880BDE8F88FB9F1000F03D0B9F5004FFB
:1018900002D100E000BF03E045F625602880F0E7B4
:1018A00000BF52492068884203D045F6C4502880C2
:1018B000E7E700BF00BFFEF7FBFC834600BF00BFA9
:1018C0004B49606A096888420AD000BF00BF584689
:1018D000FEF7F2FC00BF00BF45F281702880D0E720
:1018E000FFF792FA80462834C4F804802078401E1E
:1018F000207014F8280900280ADD00BF00BF5846F0
:10190000FEF7DAFC00BF00BF45F283702880B8E71D
:1019100021463748006801F0E9F904F1080ABAF8ED
:10192000080068B90020606284F8280000BF00BF8A
:101930005846FEF7C1FC00BF00BF00202880A0E78A
:101940002B48006890F837002949096891F8381049
:10195000884228D02648006801F0B2F9064624489B
:10196000006890F83810B14204DA2148006890F815
:10197000380000E0304606461D48006890F8370001
:10198000B04210DA1A48006801F03CFC18480068C0
:1019900080F83760304601F07DFB1548006801F0A3
:1019A000F1FB14480670DAF80000876867620120CE
:1019B00084F828002146384601F04EF900231A46E3
:1019C00039462046CDF8008001F0C2FA00BF00BFC2
:1019D0005846FEF771FC00BF00BF09F4004008B98B
:1019E00000F00AF80020288000BF4AE74D555458FF
:1019F000EC0000206200002010B500242048007890
:101A0000002800DD10BD1F480078002800DDF9E740
:101A100000BFFEF74DFC044600BF01F01BFB1A4956
:101A200008700846007800EB4000184951F8200083
:101A3000174908600846006816490968884205D1B8
:101A400000BF2046FEF738FC00BFDBE71048006807
:101A5000D0F89400401C0E490968C1F894000E4863
:101A60000068401C0C490860FEF7C0FC00BF20461F
:101A7000FEF722FC00BFBFF36F8F00BFC2E700007C
:101A8000480000207C00002063000020DC1C0020B7
:101A9000F0000020EC000020A800002070B50446F3
:101AA000002514480078012803D045F6896020807D
:101AB00070BD11480078FA2803DB45F20920208028
:101AC000F6E700BF00BFFEF7F3FB054600BF00BF0F
:101AD00009480078401C0849087001F0C1FB00BFAC
:101AE00000BF2846FEF7E8FB00BF00BF00202080B3
:101AF00000BFDDE7490000207C0000202DE9F04117
:101B000005460C461646002700BF00BFFEF7D0FB77
:101B1000074600BF00BF012D03D000200D4908700B
:101B200002E001200B49087014B10B48046006E084
:101B30000A4800680A21B0FBF1F00749086000BFBD
:101B400000BF3846FEF7B8FB00BF00BF0020308062
:101B5000BDE8F0818400002080000020BC4B00081C
:101B600070B5044600251C480078012803D045F6CE
:101B70008960208070BD1948007818B946F6645015
:101B80002080F7E700BF00BFFEF792FB054600BFCD
:101B900000BF12480078401E1049087008460078BF
:101BA00000280ADD00BF00BF2846FEF785FB00BF06
:101BB00000BF46F663502080DCE701F05FFB00BF0A
:101BC00000BF2846FEF778FB00BF00BFFFF714FFF9
:101BD0000020208000BFCDE7490000207C000020CD
:101BE00010B5044612480078E8B901F033FA1149FB
:101BF000087008460078104908700E48007800EB1D
:101C000040000E4951F820000D4908600846006860
:101C10000C490860012006490870FEF7AFFB43F647
:101C20009920208002E045F68A60208010BD0000E7
:101C3000490000206300002062000020DC1C00201E
:101C4000F0000020EC0000202DE9F04107464FF0A5
:101C5000000800BF00BFFEF72BFB804600BF00BF9F
:101C600000203B4908803B4908603B4908603B49EC
:101C700008603B4908603B49088100BF00BF4046FF
:101C8000FEF71AFB00BF00BF00BF00BFFEF710FB4E
:101C9000804600BF00BF3448046800BF00BF404614
:101CA000FEF70AFB00BF00BF21E000BF00BFFEF748
:101CB000FFFA804600BF00BF00207C34E063206054
:101CC0002063A061A082E0826062A062FFF79CF8BE
:101CD00020627C3C04F168060020B081D4F8C0404A
:101CE00000BF00BF4046FEF7E7FA00BF00BF002C70
:101CF000DBD100BF00BFFEF7DBFA804600BF00BFAC
:101D00001A48056800BF00BF4046FEF7D5FA00BF7D
:101D100000BF12E000BF00BFFEF7CAFA804600BF56
:101D200000BF05F120060020B081AD6900BF00BFF3
:101D30004046FEF7C1FA00BF00BF002DEAD101F016
:101D4000FDFF02F00FFA00203880BDE8F0810000AE
:101D500092000020A4000020B8000020DC00002039
:101D600074000020D01C0020AC000020680000207F
:101D700010B50348006810B101480068804710BDE5
:101D8000380000202DE9FF4F87B004469046DDE97A
:101D90001BA5DDE91496179F002003902CB947F28C
:101DA000AD1028800BB0BDE8F08FB8F1000F03D163
:101DB00047F24F102880F5E71EB946F62F602880BD
:101DC000F0E755480068874203D246F63060288025
:101DD000E8E71698B84203D346F631602880E1E779
:101DE000B9F1400F03D346F273202880DAE7B9F146
:101DF0003F0F06D14948844203D046F27320288021
:101E0000D0E7204601F07CFD002028800AF0010088
:101E100090B10AF0020078B105960020069008E023
:101E20000021059801600598001D05900698401C4A
:101E300006900698B842F3D3169806EB80000490FB
:101E4000CDE9007A32464046049B0A9900F0BAFA7E
:101E50000590C4F828800A98E0620898206284F807
:101E6000379084F83890059820600498A0601998FD
:101E7000A065199818B92A480068E06501E019982A
:101E8000E0651A98606066622764A4F844A04FF089
:101E9000000B08E0002104F1800040F82B100BF14A
:101EA000010000F0FF0BBBF1000FF3D004F168005C
:101EB000189900F0B1FE204600F038F800BF00BFCE
:101EC000FEF7F6F9039000BF00BF94F8370001F069
:101ED000E1F8204601F056F9204601F0C7FC114810
:101EE0000088401C0F4908800F480078012807D05F
:101EF00000BF00BF0398FEF7DFF900BF00BF51E746
:101F000000BF00BF0398FEF7D7F900BF00BFFFF77F
:101F100073FD00BF46E70000B84B0008081C002016
:101F200080000020B00000204900002010B50446C9
:101F30000348006818B1204601490968884710BD68
:101F4000280000202DE9F04104460E464FF000081D
:101F50005B48844204D147F24C103080BDE8F081E8
:101F60007CB900BF00BFFEF7A3F9804600BF00BFE9
:101F70005448046800BF00BF4046FEF79DF900BF0B
:101F800000BF00BF00BFFEF793F9804600BF00BF4F
:101F900094F83600082860D2DFE800F004090E103B
:101FA000080A0F11204601F02DF961E060E000BF42
:101FB000204601F097FE5BE000BF00BF00BF94F831
:101FC000340008283BD2DFE800F0040705080E09BA
:101FD0000A0600BF00BF33E000BF00BF00BF2046BD
:101FE00000F07BFF2CE0206BC068456A15F8377F56
:101FF000204600F072FF28786978373D884212D079
:1020000095F8370094F8371088420CD1284600F034
:1020100057FE074695F83800B84202DA95F83800BE
:1020200000E038460746002084F8340095F8370071
:10203000B84203D03946284601F0A2FB00E000BFB9
:1020400000BF94F83600032803D094F83600072820
:1020500002D1204601F046FE0AE000BF00BF404624
:10206000FEF72AF900BF00BF46F62D60308075E705
:1020700000BFE06B10B1204600F0F2FD04F16800F3
:1020800000F0A8FD204600F021F8204601F006FCF3
:102090000D480088401E0C490880204601F030FCA5
:1020A000FF2084F8360000BF00BF4046FEF704F969
:1020B00000BF00BF00203080FFF79EFC00BF4DE74F
:1020C000081C0020EC000020B000002010B50446E1
:1020D0000348006818B1204601490968884710BDC7
:1020E0002C00002010B504460348006818B12046B3
:1020F00001490968884710BD300000202DE9F047EC
:1021000080460E4614461D464FF000091EB1B6F536
:10211000004F02D100E000BF05E045F625602880B1
:102120000020BDE8F08700BF0CB10020206000BF98
:1021300000BFFEF7BDF8814600BF00BF5F480068E2
:10214000C06CA8B35D480068C06C401E5B4909685C
:10215000C8645A480068C76C1CB158480068806C55
:102160002060FEF751FE55490968896C401A5349B1
:102170000968C1F8A80051480068D0F8AC004F4980
:102180000968D1F8A810884207D24C480068D0F8F6
:10219000A8004A490968C1F8AC0000BF00BF484622
:1021A000FEF78AF800BF00BF002028803846B8E755
:1021B000FFE706F4004058B100BF00BF4846FEF7F5
:1021C0007BF800BF00BF46F2B01028800020A8E7CF
:1021D0003B48007800280BDD00BF00BF4846FEF7F3
:1021E0006BF800BF00BF46F663502880002098E7D8
:1021F000434607220021084600F092FD00BF00BFC1
:102200004846FEF759F800BF00BFFFF7F5FB00BFD7
:1022100000BFFEF74DF8814600BF00BF27480068A9
:1022200090F8350020B1012826D0032834D12CE0C5
:10223000FCB122480068806C2060FEF7E5FD1F4974
:102240000968896C401A1D490968C1F8A8001B4833
:102250000068D0F8AC0019490968D1F8A810884284
:1022600007D216480068D0F8A80014490968C1F8D8
:10227000AC000020288013E01CB110480068806C7E
:10228000206046F2A91028800AE00CB100202060EE
:1022900047F2D920288003E046F62E60288000BF50
:1022A00000BF06480068C76C00BF00BF4846FEF785
:1022B00003F800BF00BF384633E70000EC00002001
:1022C0007C0000202DE9F04106460D4614461DB164
:1022D000B5F5004F02D100E000BF05E045F62560EE
:1022E00020800020BDE8F08100BFFEF78DFD804614
:1022F000234642462946304601F070FB07463846E1
:10230000F0E700002DE9F04704460E4617461D464B
:102310004FF0000A26B946F2D5202880BDE8F087A4
:102320001FB946F2D5202880F8E700BF00BFFDF7AF
:10233000BFFF824600BF00BF0CB921480468206877
:1023400068B900BF00BF5046FDF7B6FF00BF00BF31
:1023500000203060386047F252102880DEE794F8A1
:10236000440000F0010068B900BF00BF5046FDF70F
:10237000A3FF00BF00BF00203060386047F2541058
:102380002880CBE700BF00BF5046FDF795FF00BF98
:1023900000BF4FF00008D4F8249003E009F10409CD
:1023A00008F10108D9F800000028F7D0C6F800802D
:1023B000206CA0EB080038600020288000BFADE74B
:1023C000EC000020F0B50446DDE9055602EB85007F
:1023D00020F007004FF0807C071F3846C7F800C088
:1023E000071F38463C60DFF834C2071F3846C7F87D
:1023F00000C04FF0123C071F3846C7F800C04FF02E
:10240000033C071F3846C7F800C04FF0023C071FC7
:102410003846C7F800C0071F38463B60071F3846DC
:1024200039604FF0113C071F3846C7F800C04FF025
:10243000103C071F3846C7F800C04FF0093C071F83
:102440003846C7F800C04FF0083C071F3846C7F8A9
:1024500000C04FF0073C071F3846C7F800C04FF0D8
:10246000063C071F3846C7F800C04FF0053C071F61
:102470003846C7F800C04FF0043C071F3846C7F87D
:1024800000C006F00407002F7ED04FF0007C071F2D
:102490003846C7F800C0DFF888C1071F3846C7F8BC
:1024A00000C0DFF880C1071F3846C7F800C0DFF85A
:1024B00078C1071F3846C7F800C0DFF870C1071F92
:1024C0003846C7F800C0DFF868C1071F3846C7F8AC
:1024D00000C0DFF860C1071F3846C7F800C0DFF84A
:1024E00058C1071F3846C7F800C0DFF850C1071FA2
:1024F0003846C7F800C0DFF848C1071F3846C7F89C
:1025000000C0DFF840C1071F3846C7F800C0DFF839
:1025100038C1071F3846C7F800C0DFF830C1071FB1
:102520003846C7F800C0DFF828C1071F3846C7F88B
:1025300000C0DFF820C1071F3846C7F800C0DFF829
:1025400018C1071F3846C7F800C04FF0834C071F5B
:102550003846C7F800C0DFF804C1071F3846C7F87F
:1025600000C0DFF8FCC0071F3846C7F800C0DFF81E
:10257000F4C0071F3846C7F800C0DFF8ECC0071FDB
:102580003846C7F800C000E047E0DFF8E0C0071FAA
:102590003846C7F800C0DFF8D8C0071F3846C7F86C
:1025A00000C0DFF8D0C0071F3846C7F800C04FF0A2
:1025B000824C071F3846C7F800C0DFF8BCC0071FB1
:1025C0003846C7F800C0DFF8B4C0071F3846C7F860
:1025D00000C0DFF8ACC0071F3846C7F800C04FF096
:1025E000814C071F3846C7F800C0DFF898C0071FA6
:1025F0003846C7F800C04FF0804C071F3846C7F870
:1026000000C04FF07E5C071F3846C7F800C04FF08F
:10261000000C071F3846C7F800C0F0BDC5390008D8
:102620000000F8410000F0410000E8410000E041F6
:102630000000D8410000D0410000C8410000C04166
:102640000000B8410000B0410000A8410000A041D6
:102650000000984100009041000088410000704156
:102660000000604100005041000040410000304146
:1026700000002041000010410000E0400000C04088
:102680000000A0400000404010B52948006890F8C4
:10269000440000F0040020B1254909680868FDF7EE
:1026A00057FE2448006890F8440000F0040020B170
:1026B000204909680868FDF758FE1F48006810B1F6
:1026C0001D4800688047FEF79FFB044618480068D5
:1026D00018490968884215D015480068D0F89C0050
:1026E000201A13490968C1F8980011480068D0F809
:1026F000A0000F490968D1F8981008440C490968EE
:10270000C1F8A0000B480068C0F89C400848006869
:10271000D0F8B80009490968884205D2074800681E
:1027200003490968C1F8B80000200449086010BDD9
:10273000EC000020F00000203C0000207800002089
:102740002DE9F04105460E4614460027234800783F
:10275000002804DD46F663502080BDE8F08136B1E4
:10276000022E05D0042E0AD0082E09D101E000BFA8
:1027700000BF1DB947F27E202080EEE704E003E0B1
:1027800045F625602080E8E700BF00BF00BFFDF7E9
:102790008FFD074600BF00BF23463246294610483A
:1027A000006801F041FA208838B100BF00BF384608
:1027B000FDF782FD00BF00BFCFE70948006800F0C9
:1027C00021FD00BF00BF3846FDF776FD00BF00BF0A
:1027D000FFF712F90020208000BFBEE77C00002038
:1027E000EC00002008B500F02BF86A4600210E48E6
:1027F000FFF768FD0D49097801EB41010C4A02EB36
:10280000810000F059FD0B480068401E094908602E
:102810000846006838B90848006808606A46002120
:102820000648FFF74FFD08BDA420002062000020ED
:10283000DC1C0020E8000020E40000209C21002097
:1028400010B50348006810B101480068804710BD0A
:102850004000002010B54FF480610E48FEF798FB51
:10286000002400BF00BFFDF723FD044600BF00BFEA
:1028700009480078401C0849087000BF00BF204686
:10288000FDF71AFD00BF00BFFFF7ACFFFEF760FECB
:1028900010BD0000001C02404800002001464A1EF6
:1028A0004FF0E0235A61084A106820F07F4000BFD3
:1028B00010601A46126942F005021A611A4612693E
:1028C00042F002021A61704720ED00E0244A2549D7
:1028D000254A264A2649274A2748284A284A294A73
:1028E000294A2A482A482B4A2B482C4A2C482D4A48
:1028F0002D482E482E482F482F4A304A304A31481A
:10290000314A324A324833483348344834483548EB
:102910003548364A364A374A374A384838483948B7
:10292000394A3A4A3A4A3B483B483C483C493D4888
:102930003D4A3E4A3E4A3F4A3F4A404A404A414851
:10294000414A424A42484348434A444A4448454A25
:10295000454A4648464800BF00BF00BF70470000D8
:10296000F04B0008584D0008F14B0008F24B0008EE
:10297000F44B0008F84B0008FC4B0008F94B00082A
:10298000244C0008254C0008264C0008284C000860
:102990002A4C00082E4C0008304C0008504C00080F
:1029A000524C0008544C0008564C0008584C000883
:1029B0005A4C00085C4C00088C4C00088D4C0008F8
:1029C0008E4C0008904C0008924C0008934C000874
:1029D000944C0008964C0008984C00089A4C00084B
:1029E0009C4C00089E4C0008A04C0008D04C0008ED
:1029F000D14C0008D24C0008D34C0008D44C00083D
:102A0000D64C0008D84C0008004D0008014D0008C5
:102A1000024D0008034D0008044D0008064D000853
:102A2000084D00080C4D00080D4D00080E4D000823
:102A30000F4D0008104D0008114D0008124D000800
:102A4000134D0008144D0008164D0008174D0008DE
:102A5000184D00081A4D00081C4D00081D4D0008B7
:102A6000204D0008504D0008514D0008524D0008FF
:102A7000544D00080021034A1160034A118001806F
:102A8000704700004C00002050000020002419E096
:102A900000BF00BFFDF70CFC044600BF00BF0A48A2
:102AA0000068401C0849086008480068401C074945
:102AB000086000BF00BF2046FDF7FEFB00BF00BF5F
:102AC000FEF752FCE4E700004400002094000020E0
:102AD00010B58AB0044600200E4908600B20002182
:102AE0000591CDE90704069108460B4909680B4A90
:102AF00012680B4B1B68CDE90132CDE903103F2072
:102B00000023084A08A100900C48FFF73BF90AB0DF
:102B100010BD000044000020644B0008604B00081A
:102B20005C4B00088D2A000875432F4F532D4949EF
:102B3000492049646C65205461736B00081C0020B7
:102B40000021034A1160034A118001807047000090
:102B5000540000205800002070B501461A4D2D6821
:102B60001DB945F21E750D8070BD184D2D881DB91B
:102B700045F21D750D80F7E7134D28682A6810325D
:102B8000124D2D886D1EACB2002308E002600025B6
:102B900045600581C560103010325D1CABB2A342A8
:102BA000F4DB0025056045600581C560064D2D6894
:102BB000074E3560054D2D88B5800025F58035819F
:102BC0000D8000BFD0E700009C4B0008944B00082C
:102BD000D01C002010B5014648894B89002B17DD19
:102BE0000A680C4B1B6813600A4C4B682360234631
:102BF000DB884C891B1B074CE38023469B884C8950
:102C00002344044CA38000234B818B810B604B60D9
:102C100010BD0000D01C0020018100224281828171
:102C2000026042607047000009A1C161002141615A
:102C30000849096811B90021816105E00549096861
:102C400081610449096848610249086070470000D1
:102C5000200000005C000020C26B0A62C163704764
:102C60002DE9F8430546EC6B26E0D4F82090FEF7FA
:102C7000CBF80646E6622146284600F037F804F114
:102C80000808B8F8080020B9002084F8280060621D
:102C900011E0D8F8000087686562012084F82800F8
:102CA00021463846FFF7D8FF00231A46394620460A
:102CB000009600F04DF94C46002CD6D1BDE8F883C3
:102CC00030B504463F2004F13C010BE00D68AB68D1
:102CD0002BB19D6895F83720824200DA10460D68C6
:102CE00005F120010D68002DF0D130BD024602F142
:102CF0003C0002E0036803F1200003688B42F9D135
:102D000003681B6A036070470021034A1160034A8D
:102D100011800180704700005C00002060000020EE
:102D20002DE9F04105460C4616461F461548006839
:102D300080F8346000201349096881F8350039466D
:102D40001048006800F006FD6CB104F10808EC6062
:102D5000012229460B48006800F016F82946404633
:102D600000F088F807E0002006490968A1F846004D
:102D700004490968086303480168204600F018F810
:102D8000BDE8F081EC00002010B5A0F846200163FA
:102D900000230AE000244C600C600C614C610C8341
:102DA000CC61886020315C1CA3B29342F2DB10BD81
:102DB00030B548B14568C1F8C45000F10804226834
:102DC00093681D6AC56113E091F83450022D02D05A
:102DD000072D08D103E007A5C1F8C45007E007A5F7
:102DE000C1F8C45003E008A5C1F8C45000BF00BF3B
:102DF00030BD00005461736B205100005461736B4F
:102E00002053656D000000002000000030B507A5CC
:102E1000C1F8C45000F1080422681AB193681D6A11
:102E2000C56101E001A5C56130BD000020000000C2
:102E30002DE9F0410446256BB4F8467011E0D5F851
:102E40000C8008F108063089012807D92946304648
:102E500000F05DF82946304600F00CF82035781E69
:102E600087B2002FEBD1BDE8F08100210160416005
:102E700001817047F0B58E6896F8375007893FB9E1
:102E80000127078100274F600F600160416023E048
:102E900007897F1C0781026806E0946894F8377000
:102EA000AF4200DD02E05268002AF6D100BF32B91D
:102EB00000274F6043680B60596041600CE0176861
:102EC0002FB9116000270F604A60016004E01368A9
:102ED0000B604A6059601160F0BD2DE9F041044675
:102EE000256BB4F846600AE0D5F80C8008F10807B5
:102EF0002946384600F00BF82035701E86B2002EA9
:102F0000F2DC0020A4F846002063BDE8F08110B593
:102F10000489012C03D100240460446011E00C6892
:102F200024B94A680024146002600AE04C6824B99D
:102F30000B6800245C60436003E00B684A685A60D9
:102F400013600489641E048100244C600C6010BD71
:102F50002DE9F84306460C4617469846089D94F816
:102F6000360008285BD2DFE800F0040508090607F0
:102F7000323300BF00BF00BF52E000BF94F83400FE
:102F8000032807D143463A4621463046009500F0D3
:102F90004AF803E02766A4F86480A56436B12046A9
:102FA000FFF79BFF21463046FFF730FF94F83600CD
:102FB000032802D1204600F095FE204600F0ACF830
:102FC00000203434A070607004F8340928E000BF99
:102FD00094F83400032807D143463A462146304648
:102FE000009500F020F803E02766A4F86480A5644B
:102FF00036B12046FFF771FF21463046FFF706FF46
:1030000094F83600072802D1204600F06BFE042019
:103010003434A0700020607004F8340900E000BF70
:1030200000BFBDE8F883F0B50446059E086BB1F813
:1030300046500AE0C768A74204D104614261038395
:10304000C66104E020306F1EBDB2002DF2DC00BF6F
:10305000F0BD000070B50025074C03E005F120002D
:10306000C5B2241D20680028F8D02068FDF72BF990
:103070002844C5B2284670BD20000020002004E08E
:103080000021034A42F82010401C0228F8D3704760
:103090002000002030B5420900F01F030121C3F1D8
:1030A0001F04A140034C54F822400C43014D45F845
:1030B000224030BD2000002030B5420900F01F033F
:1030C0000121C3F11F04A140034C54F822408C435A
:1030D000014D45F8224030BD200000200021034A68
:1030E0001160034A118001807047000068000020D1
:1030F0006C00002000210AE001EB4102054B03EBCC
:10310000820000220281026042604A1CD1B2402942
:10311000F2D37047DC1C002010B5044694F8370049
:10312000FFF7B8FF94F8370005490978884203D1C2
:10313000204600F027F802E0204600F003F810BD1A
:103140006200002010B590F8373003EB43030C4CBD
:1031500004EB83010B893BB901230B810023C3607E
:1031600003610860486009E00B895B1C0B810B68F8
:10317000C360002303610A681061086010BD00008D
:10318000DC1C002010B590F8373003EB43030B4CE8
:1031900004EB83010B893BB901230B810023C3603E
:1031A00003610860486008E00B895B1C0B81002309
:1031B000C3604A680261D060486010BDDC1C00201A
:1031C00010B501460C8924B1012C03D0022C0CD17E
:1031D00001E000BF14E008684A6802610024C4608E
:1031E0001461D0600A6048600AE008684A68C368F1
:1031F00000241C61C4600261D0600B60486000BFA5
:1032000000BF10BD2DE9F041054695F8370000EBF1
:103210004000124901EB80042F69EE6887B946B976
:10322000002020812060606095F83700FFF744FFA0
:103230000EE02089401E208100203061266007E0DA
:103240002089401E2081FE600EB9676000E0376172
:1032500000202861E860BDE8F0810000DC1C00204F
:1032600010B504480078012803D1FDF7CDFD0249CF
:10327000086010BD7C0000207000002010B50A48D6
:10328000007880B9FDF7C0FD08490968441A08486C
:103290000068A04201D20648046006480068A042C7
:1032A00001D20448046010BD7C00002070000020A2
:1032B000740000207800002070B5054600262E48D6
:1032C0000078012800D070BD00BF00BFFCF7F0FF00
:1032D000064600BF00BF2C683CB900BF00BF3046A7
:1032E000FCF7EAFF00BF00BFEDE72448844207D1A6
:1032F00000BF00BF3046FCF7DFFF00BF00BFE2E7C2
:10330000E06D10B1E06D401EE065E06D38B100BFCA
:1033100000BF3046FCF7D0FF00BF00BFD3E72889CD
:10332000022807DA00BF00BF3046FCF7C5FF00BF28
:1033300000BFC8E712480078002807DD00BF00BFC3
:103340003046FCF7B9FF00BF00BFBCE72846FFF7D7
:1033500037FF2C68A06D18B90A480068E06501E0E5
:10336000A06DE06500BF00BF3046FCF7A5FF00BFC1
:1033700000BF00BFA7E7000084000020081C002059
:103380007C000020800000200021034A1160034AD5
:103390001180018070470000880000208C00002010
:1033A00086B00020009006E0A8490968480001AAFC
:1033B0000021FFF7C5F9A64800780128F4D101A83B
:1033C000FEF742FC0027A3480068A049096888422C
:1033D00005D9A04800689D490968B0FBF1F727B9F5
:1033E0009C4800680A21B0FBF1F72EE1FDF70CFDC7
:1033F000804600BF00BFFCF75BFF009000BF00BF2E
:10340000954800689549086000209349086000BF0E
:1034100000BF0098FCF750FF00BF00BF9048006855
:103420008E490968884248D98D4800688D4988428C
:1034300005D242F2107003900120029023E08848E8
:1034400000688949884205D24FF47A7003900A20B7
:10345000029018E0824800688449884203D26420C0
:10346000039002900FE07E4800688149884205D2AF
:103470000A2003904FF47A70029004E00120039038
:1034800042F210700290764801680298B1FBF0FA9F
:103490007249039809684843B0FBFAF042F2107190
:1034A000081A74490880744800880988884208DA34
:1034B000704800887049088003E042F210706D493E
:1034C0000880FEF755FC002500BF00BFFCF7F0FEAA
:1034D000009000BF00BF6948046800BF00BF0098AB
:1034E000FCF7EAFE00BF00BF26E000BF00BFFCF70C
:1034F000DFFE009000BF00BF54F8A00F6060002006
:1035000044F8A00900BF00BF0098FCF7D5FE00BF3B
:1035100000BFD4F8A400054400BF00BFFCF7C8FEFC
:10352000009000BF00BFD4F8C04000BF00BF0098AB
:10353000FCF7C2FE00BF00BF002CD6D145B34948FE
:10354000854205D242F2107005904FF0010B1BE04E
:103550004548854205D24FF47A7005904FF00A0B2A
:1035600012E04248854203D26420059083460BE076
:103570003F48854204D20A2005904FF47A7B03E04D
:103580000120059042F2107BB5FBFBF0049003E0B4
:10359000002005900120049000BF00BFFCF788FECA
:1035A000009000BF00BF3548046800BF00BF00980E
:1035B000FCF782FE00BF00BF2BE0D4F8A400059901
:1035C00048430499B0FBF1F086B242F21070864293
:1035D00000D90646A4F89060B4F89200B04201DA2F
:1035E000A4F8926001AB04F1B002111D2046FEF771
:1035F00089FE00BF00BFFCF75BFE009000BF00BF6C
:10360000D4F8C04000BF00BF0098FCF755FE00BFD3
:1036100000BF002CD1D11A480078012805D1002024
:103620001749087001A8FEF70FFBFDF7EDFBA0EBB3
:10363000080914480068484502D21248C0F80090B2
:1036400001AA00213846FFF77BF8CFE6A44B00081B
:10365000A0000020BC4B0008940000209C0000202B
:1036600098000020801A060000093D00005A6202FE
:103670000084D7179000002092000020AC000020AA
:103680008E000020A400002010B58AB0044600205F
:103690001F4908601F4908601F4908601F490870DA
:1036A0001F4908701F48006820B946F62B6020802B
:1036B0000AB010BD1C4800681C490968884203D242
:1036C00046F62C602080F3E7194800783F2803D3A2
:1036D00046F62A602080EBE7032000210591CDE922
:1036E00007040691084610490968124A12680D4BF2
:1036F0001B68CDE90132CDE903100D4800780023A5
:103700000D4A0EA100901248FEF73CFB00BFCFE728
:10371000940000209C00002098000020A0000020C1
:103720008E000020A84B0008B04B0008B84B0008E2
:10373000A04B0008AC4B0008A133000875432F4F85
:10374000532D4949492053746174205461736B00AF
:10375000DC1F002070B504460D4645B12A462146BF
:10376000064800F01DFA032084F8360002E002202B
:1037700084F836002046FFF745FD70BDC4000020E8
:103780002DE9F04104460D4600BF002694F837703D
:1037900094F8360008285FD2DFE800F004191E1FF5
:1037A0001A1B20212046FFF72DFD84F8375094F88E
:1037B0003700FFF76FFC2C480068844203D1204695
:1037C000FFF7C0FC02E02046FFF7DCFC46E000BF4C
:1037D00000BF84F8375041E000BF00BF00BF84F84D
:1037E000375094F83400082831D2DFE800F0300474
:1037F00031050B06073200BF00BF00BF2046FFF7B0
:1038000017FB27E02046FFF713FB206BC068466AD2
:10381000AF4205DD96F83700A84217DC002615E018
:1038200096F83700B84211D13046FFF749FA0546FD
:1038300096F83800A84202DA96F8380000E02846E8
:10384000054696F83700A84200D1002602E000BFE6
:1038500000BF00BF00BF01E0BDE8F08100BF3446FB
:10386000002C92D100BFF7E7EC0000200021C0F847
:10387000BC100949096819B90021C0F8C01007E057
:1038800005490968C0F8C01003490968C1F8BC00BF
:103890000149086070470000AC000020D0F8BC204F
:1038A000D0F8C0104AB90D4B196011B10023C1F80E
:1038B000BC300023C0F8C0300FE029B90023C2F8A3
:1038C000C030C0F8BC3008E0C2F8C010C1F8BC205D
:1038D0000023C0F8C030C0F8BC307047AC000020F6
:1038E0000021044A1160044A1180044A11600180D9
:1038F00070470000AC000020B0000020A8000020AD
:1039000070B5044600202060A0606060E060206127
:103910006061A061E06128A0206200206062A06276
:10392000E062A0642066A4F86400002104F168004D
:10393000FFF772F9002044F8780F6060E060A08221
:103940002061783C002506E0002104F1800040F869
:103950002510681CC5B2002DF6D000203434A061BB
:103960006067A067E06084F85A00C4F88000E067F0
:103970002082E06120626062A062A4F85C00A4F88A
:103980005E0020666066FDF73FFA0646A6660020E8
:10399000E066C4F8840020706070A0704020E07081
:1039A00020710020A060C4F88800C4F88C0004A036
:1039B000C4F89000343C70BD3F5461736B0000004C
:1039C0002000000008B504480068FEF78BFB69463C
:1039D0000020FEF7B7FA08BDEC0000202DE9F843FF
:1039E0000446884617461D464FF0000900BF00BF39
:1039F000FCF75EFC814600BF00BF0CB96748046855
:103A0000A7640020288094F83600082876D2DFE8E2
:103A100000F0040550510607525300BF00BF00BF1D
:103A20000420012804D0022813D0042833D122E036
:103A3000E06CFF280CD100BF00BF4846FCF73CFCFF
:103A400000BF00BF46F6C55028800020BDE8F883BF
:103A500022E04FF6FF71E06C88420BD100BF00BF3F
:103A60004846FCF729FC00BF00BF46F6C550288039
:103A70000020EBE710E0E06C401C58B900BF00BF2D
:103A80004846FCF719FC00BF00BF46F6C550288029
:103A90000020DBE700E000BF00BFE06C401CE064FA
:103AA000E66C00BF00BF4846FCF706FC00BF00BF45
:103AB00071E000BF00BF00BF94F83400072815D1A3
:103AC00000231A46214618460097FFF741FAE66C94
:103AD00000BF00BF4846FCF7EFFB00BF00BF08F483
:103AE000004000284AD1FDF787FF47E00420012865
:103AF00005D0022813D0042833D122E03FE0E06C47
:103B0000FF280BD100BF00BF4846FCF7D5FB00BF24
:103B100000BF46F6C5502880002097E722E04FF608
:103B2000FF71E06C88420BD100BF00BF4846FCF734
:103B3000C3FB00BF00BF46F6C5502880002085E7C4
:103B400010E0E06C401C58B900BF00BF4846FCF7CD
:103B5000B3FB00BF00BF46F6C5502880002075E7C4
:103B600000E000BF00BFE06C401CE064E66C00BFFA
:103B700000BF4846FCF7A0FB00BF00BF0BE000BF42
:103B800000BF4846FCF798FB00BF00BF46F62D601B
:103B90002880002600BF00BF304657E7EC00002019
:103BA00070B51546066846B90D6500264E618E61F2
:103BB000C86101600126868033E0046802682B46F4
:103BC00024E0166D9E421DD396696EB90B650026E2
:103BD0008E614A61C861166DF61A166591610160C1
:103BE0008688761C86800CE094690B658C614A613E
:103BF000C861166DF61A1665916161618688761C3A
:103C0000868070BD166D9B1B14465269002AD8D160
:103C10000B658C6100264E61C86161618688761CE7
:103C2000868000BFEDE700002DE9F04104460D4617
:103C300090461F46B8F1040F0ED1284800682E1A8E
:103C400016F5803F01D8002E3CD10020206547F2B8
:103C50007E203880BDE8F081B8F1080F29D11F49D6
:103C6000606D0968081AA84205D92E461B480068ED
:103C70002844606526E01949606D0968081A2E1A03
:103C800016F5803F00D886B91449606D0968081A96
:103C9000B0FBF5F005FB0050616D08446065002045
:103CA000206547F27E203880D4E7606D2844606547
:103CB00008E00DB12E4605E00020206547F27E2089
:103CC0003880C7E7012084F8360032462146044890
:103CD000FFF766FF0020388000BFBBE7B40000207C
:103CE000BC00002030B5C26983694169ABB929B90C
:103CF0000024146094800465C4611EE000248C617B
:103D00000C6D056D2C440C6511609488641E9480C4
:103D1000002444610465C4610FE0596121B18B61E5
:103D20000C6D056D2C440C65002484619488641E20
:103D30009480002444610465C46130BD7047000074
:103D40002DE9F0474FF0000900BF00BFFCF7B0FAC3
:103D5000814600BF00BFFDF757F8064600271D4DFE
:103D60002C683CB3206D401E20651FE0781C87B294
:103D700094F83600012806D1002084F83600204649
:103D8000FFF7CAF906E094F83600052802D10420AE
:103D900084F83600606928602C6814B90020A88077
:103DA00007E0A888401EA8800020A061206D0028A0
:103DB000DCD000BFEF80FDF727F8A0EB060800BFBE
:103DC00000BF4846FCF778FA00BF00BF4046BDE898
:103DD000F0870000BC0000202DE9F05F4FF0000BE1
:103DE00000BF00BFFCF764FA834600BF00BFFDF7C9
:103DF0000BF807464FF000083B4D2C68002C63D0B1
:103E0000206D401E20655BE008F101001FFA80F87C
:103E1000002694F83400042802D1206BC068466A5A
:103E200000202066A4F86400FCF7EEFFA0642046A2
:103E3000FFF753F894F83600032806D12046FFF721
:103E40006BF9002084F8360006E094F83600072865
:103E500002D1042084F83600032084F835000020C5
:103E600084F8340006B396F8370096F83810884284
:103E70001AD096F8370094F83710884214D130469B
:103E8000FEF71EFF814696F83800484502DA96F89C
:103E9000380000E04846814696F83700484503D090
:103EA00049463046FFF76CFC606928602C6814B9FD
:103EB0000020A88007E0A888401EA8800020A061FC
:103EC000206D0028A0D000BFA5F80680FCF79CFF5D
:103ED000A0EB070A00BF00BF5846FCF7EDF900BF92
:103EE00000BF5046BDE8F09FC400002008B5002781
:103EF00028E06B46002211461046FEF7FFF8BDF899
:103F00000000F8B900BF00BFFCF7D2F9074600BFB8
:103F100000BF0D480068401C0B49086000BF00BF8F
:103F20003846FCF7C9F900BF00BFFFF709FF064696
:103F3000FFF752FF0546741904480068A04201D2F9
:103F400002480460D5E70000B4000020B80000205B
:103F500010B58AB004460020204908602049086056
:103F6000204908601E498880C8801E498880C88012
:103F70001D48006820B947F2122020800AB010BD09
:103F80001A4800681A490968884203D247F2132088
:103F90002080F3E7174800783F2803D347F2112029
:103FA0002080EBE70B2000210591CDE90704069165
:103FB00008460E490A68104909680B4B1B68CDE991
:103FC0000131CDE903200B48007800230B4A0CA1F6
:103FD00000901048FDF7D6FE00BFCFE7B4000020E8
:103FE000BC000020C4000020C44B0008CC4B0008DB
:103FF000B84B0008C04B0008C84B0008ED3E000855
:1040000075432F4F532D494949205469636B205400
:1040100061736B00A420002010B58AB00446002014
:104020002F4908602F4908602F4908802F480068F1
:1040300040B12F4800682D490968B0FBF1F02D49C7
:10404000086006E02A4800680A21B0FBF1F029491F
:10405000086028480068284908600020274908604F
:1040600027490860224627A12A48FDF7DFFA208861
:1040700008B10AB010BD2848006818B947F24730A7
:104080002080F6E72548006825490968884203D260
:1040900047F248302080ECE7224800783F2803D3DD
:1040A00047F246302080E4E70B20002105910A46C4
:1040B000CDE907040691194800681B490968164BA9
:1040C0001B68CDE90131CDE90302164800780023D1
:1040D000164A17A100901C48FDF754FE00BFC8E720
:1040E000CC000020D4000020D0000020D84B0008D5
:1040F000BC4B0008E4000020E8000020E0000020A5
:10410000DC0000204F5320546D72204D757465788B
:10411000000000006C210020DC4B0008E44B00088C
:10412000B84B0008D44B0008E04B00086941000878
:1041300075432F4F532D4949492054696D657220AD
:104140005461736B000000009C2100200EB502A892
:1041500001AB0022114600900148FDF79FFA0EBD09
:104160006C210020704700001CB53FE001AB6A469F
:1041700000210846FDF7C2FFFFF7E8FFFCF744FE09
:1041800006461B480068401C194908601948046825
:104190001FE001A8FDF782FCD4F81080A069401E42
:1041A000A061A06980B9A08C022802D1206AA06118
:1041B00005E0204600F022F8032084F82600A568D8
:1041C00015B12046E168A847444601A8FDF7C8FCA0
:1041D00000BF002CDDD1FCF717FE871B00F030F884
:1041E00005480068B84201D203480760BEE70000F6
:1041F000E0000020D4000020DC00002010B50E4BB1
:104200001B68834206D101690B4B196039B1002349
:104210004B6104E0416902690A6102B15161012305
:1042200080F82630002303614361044B1B885B1E2A
:10423000024C238010BD0000D4000020D0000020DC
:1042400008B56A4600210248FDF710FB08BD0000D2
:104250006C21002029B1064A12680243044B1A60FF
:1042600004E0034A12688243014B1A607047000061
:104270003038024029B1064A12680243044B1A60E2
:1042800004E0034A12688243014B1A607047000041
:104290004038024029B1064A12680243044B1A60B2
:1042A00004E0034A12688243014B1A607047000021
:1042B00044380240F0B500210022002402250026E7
:1042C0000223324F3F6807F00C0121B1042905D0C9
:1042D000082937D105E02E4F076036E02D4F0760E3
:1042E00033E02A4F3F1F3F68C7F38056274F3F1FD9
:1042F0003F6807F03F036EB1264FB7FBF3F7DFF8D7
:104300008CC0ACF1040CDCF800C0CCF3881C07FBBB
:104310000CF40CE01E4FB7FBF3F7DFF870C0ACF104
:10432000040CDCF800C0CCF3881C07FB0CF4174F1E
:104330003F1F3F68C7F301477F1C7D00B4FBF5F7C3
:10434000076002E0124F076000BF00BF0F4F3F68D9
:1043500007F0F0010909104F7A5C0768D740476001
:104360000A4F3F6807F4E051890A0B4F7A5C4768AF
:10437000D7408760054F3F6807F46041490B064FFF
:104380007A5C4768D740C760F0BD0000083802403B
:104390000024F40000127A000000002030B5002252
:1043A0008B071C0F0F2303FA04F20B4B8C1053F8EE
:1043B00024309343084C8D1044F8253023468C104C
:1043C00053F824308C07240F00FA04F42343024CE2
:1043D0008D1044F8253030BD0838014010B540F24A
:1043E0002551084800F02DF8012809D1054800F0B2
:1043F000E1F80549087040F22551024800F006F83E
:1044000010BD000000440040F400002010B5002260
:10441000002340F66A14A14200D100BF0A12012411
:104420009440A3B2DC43048010BD21B1828942F4E0
:104430000052828104E082894DF6FF731A40828126
:10444000704770B50246002400230025002040F686
:104450006A16B14200D100BFC1F3421501F01F033B
:10446000012606FA03F3012D02D19689334006E0B6
:10447000022D02D1168A334001E0968A33400C1295
:10448000012606FA04F41688344013B10CB1012059
:1044900000E0002070BDF0B5034600240026002592
:1044A000002040F66A17B94200D100BF1846C1F398
:1044B000421401F01F06012707FA06F5012C01D16D
:1044C0000C3004E0022C01D1103000E014301AB19D
:1044D00007682F43076002E00768AF430760F0BD3D
:1044E0002DE9FF4705460E460024A14600BFA04621
:1044F000B08900B100BF2C8A24F44054F0880443F2
:104500002C82AC8941F20C608443B0883189084325
:10451000718908430443AC81AC8A24F44074B089A7
:104520000443AC826846FFF7C5FE2048854202D0AE
:104530001F48854202D1DDF80C9001E0DDF80890BB
:10454000A88900F4004040B109EBC90000EB091054
:1045500031684900B0FBF1F707E009EBC90000EB57
:10456000091031688900B0FBF1F76420B7FBF0F067
:1045700004012009642101FB1078A88900F400409F
:1045800040B1322000EBC800B0FBF1F000F00700B2
:10459000044308E0322000EB08106421B0FBF1F086
:1045A00000F00F0004432C81BDE8FF87001001409C
:1045B0000014014001468888C0F3080070470000DD
:1045C00010B524E013480078062802D1124908707B
:1045D0001EE010480078012801D100F061F80D4874
:1045E0000078022801D100F02FF80A48007803284B
:1045F00001D100F0A1FA07480078042801D100F0A9
:10460000A1FA04480078052801D100F04FF8D9E755
:1046100000BF10BDF4000020F500002008B5012007
:10462000082300224FF4165100900548FCF722FDA4
:1046300004492620FCF7ACF92620FBF7A9FF08BDAA
:1046400000440040DD43000810B500F081F900F09F
:10465000D5F910BD10B50422C0211048FCF7A9FC03
:1046600004224FF440710D48FCF7A3FC00224021C6
:104670000A48FCF7F1FC002280210848FCF7ECFC1A
:1046800000224FF480710548FCF7E6FC00224FF44D
:1046900000710248FCF7E0FC10BD00000008024079
:1046A00010B500F05DF900F0B1F910BD10B500F0E3
:1046B0005FF900F0B3F910BD01460020062907D0CC
:1046C000072903D0082905D1102004E00C2002E0BE
:1046D000082000BF00BF00BF7047000010B52021B8
:1046E0000248FCF75EFCC4B2204610BD0010024038
:1046F000014600201B4A914201D1012030E01A4AB4
:10470000914201D102202BE0184A914201D10420AC
:1047100026E0174A914201D1082021E0154A914232
:1047200001D110201CE0144A914201D1202017E051
:10473000124A914201D1402012E0114A914201D126
:1047400080200DE00F4A914201D1881508E00E4A01
:10475000914201D1481503E00C4A914200D108155D
:1047600070470000000002400004024000080240C0
:10477000000C0240001002400014024000180240E9
:10478000001C024000200240002402400028024099
:1047900001466F20B1F5807F3BD012DC102930D06C
:1047A00008DC012925D0022925D0042925D0082993
:1047B0003FD124E0202926D0402926D0802938D195
:1047C00025E0B1F5805F2CD009DCB1F5007F22D067
:1047D000B1F5806F21D0B1F5006F2AD11FE0B1F59E
:1047E000005F20D0B1F5804F1FD0B1F5004F20D130
:1047F0001DE000201EE001201CE002201AE0032042
:1048000018E0042016E0052014E0062012E007203E
:1048100010E008200EE009200CE00A200AE00B203E
:1048200008E00C2006E00D2004E00E2002E00F203E
:1048300000E000BF00BF7047014600201A4A9142C5
:1048400000D130E0194A914201D101202BE0184AF1
:10485000914201D1022026E0164A914201D1032063
:1048600021E0154A914201D104201CE0134A9142F3
:1048700001D1052017E0124A914201D1062012E031
:10488000104A914201D107200DE00F4A914201D117
:10489000082008E00D4A914201D1092003E00C4AAA
:1048A000914200D10A2070470000024000040240FB
:1048B00000080240000C02400010024000140240B8
:1048C00000180240001C0240002002400024024068
:1048D0000028024010B54FF400610348FCF761FB6B
:1048E000C4B2204610BD00000008024010B54021AF
:1048F0000248FCF756FBC4B2204610BD000402403B
:1049000001460020012902D0022904D101E0012042
:1049100002E0022000E000BF00BF70470146022015
:10492000092912D2DFE801F00506070C0F0E090A6B
:10493000080000BF00BF00BF00BF00BF002005E0AF
:10494000032003E000BF012000E000BF00BF70476C
:1049500010B5002000F06AF8012000F071F810BDD9
:1049600010B5012000F062F8002000F069F810BDD9
:1049700010B5002000F05AF8002000F061F810BDDA
:1049800000B58BB0FBF700FEFCF74AF9FCF75AFCC8
:10499000FCF732FCFBF76AFDFCF734F90AA8FCF7D8
:1049A000EDFC0AAA05210120FDF7A8F80AA80021BC
:1049B0000A23CDE90531CDE90710184664211A46CE
:1049C000094BCDE90132CDE9031003200023074A4A
:1049D00007A100900848FDF7D5F90AA8FDF700F9EE
:1049E00000200BB000BD00002C230020854A0008E9
:1049F0007461736B310000006422002010B5002048
:104A000000F028F8012000F031F810BD10B50120A9
:104A100000F020F8002000F029F810BD10B50020AB
:104A200000F018F8002000F021F810BD10B5044681
:104A3000A2B240210148FCF70FFB10BD0008024064
:104A400010B50446A2B280210148FCF705FB10BD59
:104A50000008024010B50446A2B24FF4807102482B
:104A6000FCF7FAFA10BD00000008024010B5044639
:104A7000A2B24FF400710248FCF7EEFA10BD00003C
:104A800000080240FFF7E6FD00F03EF8FFF7C6FD24
:104A90000BE006480078062801D100F009F8034829
:104AA0000078072801D1FFF78BFDF2E7F500002021
:104AB00070B5FFF70FFFC4B2FFF718FFC5B2FFF7DD
:104AC0000DFEC6B21EB1012C06D1012D04D1FFF797
:104AD000EDFD07200B49087024B91DB9012E01D145
:104AE000FFF7DEFD012C04D11DB9012E01D100F02C
:104AF00023F82CB9012D03D1012E01D100F022F8A9
:104B000070BD0000F500002010B500224FF40061D8
:104B10000648FCF74EFA002240210548FCF749FA06
:104B2000002220210348FCF744FA10BD000802408F
:104B3000000402400010024010B5FFF719FFFFF714
:104B400065FF10BD10B5FFF769FFFFF709FF10BD46
:104B50004FF04070E1EE100A70470000880E002010
:104B600006000000400000000001000000000000FE
:104B70000000000000000000000000000000000035
:104B80000000000000000000880F0020640000000A
:104B90009001000064000000400600001811002091
:104BA0000B0000000A000000581700200A00000057
:104BB000640000009001000040000000E8030000D5
:104BC00001000000E81800200A0000006400000056
:104BD000900100000B0000000A000000781A00207D
:104BE0000A0000006400000090010000800D000039
:104BF000010101007856341200010000000000009D
:104C000000000000000000000000000000000000A4
:104C10000000000000000000000000000000000094
:104C20000000000001010100280004000000000055
:104C30000000000000000000000000000000000074
:104C40000000000000000000000000000000000064
:104C500001002000010010000C0010000000000006
:104C60000000000000000000000000000000000044
:104C70000000000000000000000000000000000034
:104C80000000000000000000000000000101010021
:104C90003000010020000C0020004000080004004B
:104CA0000000000000000000000000000000000004
:104CB00000000000000000000000000000000000F4
:104CC00000000000000000000000000000000000E4
:104CD000010101013000010000000000000000009F
:104CE00000000000000000000000000000000000C4
:104CF00000000000000000000000000000000000B4
:104D00000101010128000C00000300000401010161
:104D10000101010101000101C800080001010000BA
:104D20000000000000000000000000000000000083
:104D30000000000000000000000000000000000073
:104D40000000000000000000000000000000000063
:104D500001013000C4760000160700007C4D0008F9
:104D600000000020F8000000E8010008744E000870
:104D7000F8000020282A00000402000800000000BB
:104D800001020304010203040607080900000000F1
:104D90000000000000000000000000000000000013
:104DA0000000000000000000000000000000000003
:104DB00000000000000000000000000000000000F3
:104DC00000000000000000000000000000000000E3
:104DD00000000000000000000000000000000000D3
:104DE00000000000000000000000000000000000C3
:104DF00000000000000000000000000000000000B3
:104E000000000000000000000000000000000000A2
:104E10000000000000000000000000000000000092
:104E20000000000000000000000000000000000082
:104E30000000000000000000000000000000000072
:104E40000000000000000000000000000000000062
:104E50000000000000000000000000000000000052
:104E60000000000000000000000000000000000042
:044E70000006000038
:04000005080001AD41
:00000001FF
